:03000000020F6983
:0C0F6900787FE4F6D8FD758107020FB018
:05168C00121691D2A12D
:081691007F017E02DEFEDFFA9C
:01169900222E
:0F167D00D2A012168CC2A0121691C2A102169111
:0A16CF00C2A012168CD2A0021691E0
:02136C00AD07CB
:10136E00E4FBFAEDC4131313540124FF92A0ED25F0
:10137E00E0FD12168CC2A11216910BEBB408E4D24A
:10138E00A0121691D2A130A00F0AEAD394C840F64B
:0F139E00C2A11216917F0022C2A11216917F01E7
:0113AD00221D
:1014E800E4FDFCD2A0121691D2A1121691EC25E0CF
:1014F800FCA2A0E4334CFC121691C2A11216910D65
:06150800EDB408E4AF049D
:01150E0022BA
:1015FF00AC05A90712167D7FA012136CAF01121351
:09160F006CAF0412136C0216CF3B
:0215A400AC0792
:1015A60012167D7FA012136CAF0412136C12167DF7
:0F15B6007FA112136C1214E8AD071216CFAF0508
:0115C5002203
:10149500C2A58F807F017E001214A6D2A77F057E8C
:0114A5000046
:1014A600D3EF9400EE9400400F7DC77C01DCFEDD97
:0814B600FAEF1F70EB1E80E845
:0114BE00220B
:0A16D900C2A7C2A6121495C2A722F0
:0A16E300C2A7D2A6121495C2A722D6
:101618007F381216D97F0C1216D97F061216D97F79
:09162800011216D97F800216D9C7
:1014BF00789FEDF2EFB40105E224808005789FE27A
:1014CF0024C0FF1216D9120993FF600C1216E37491
:0914DF000129F9E43AFA80EE2239
:100B66002A0020002050617373576F72642045522B
:100B7600524F52202000204F7269205061737357E4
:100B86006F72642000204E65772050617373576F33
:100B96007264200020524553455420535543434523
:100BA6005353200020312E494320496E507574203E
:100BB60020200020322E416464204E657720436158
:100BC600640020494320434152443A20202000201B
:100BD6002057726F6E6720436172642020002030B8
:100BE6003031202020002030303220202000332ECB
:100BF600494320496E707574202020202000312E34
:100C060050617373576F7264202020202000322EAB
:100C16004D6F646966792050572020202000FFFF21
:100C2600FFFFFFFF2D2D2D2D2D2D2D2D2D2D2D2DA6
:10108100981D303132333435363738395330515574
:1010910030304430305430304100906420202020E2
:1010A10057656C636F6D65202020200090742020AF
:1010B100506C6561736520496E70757420008615EA
:1010C100303030303030903500000000000000003A
:1010D1000000000000000001904500000000000039
:1010E1000000000000000000000290050000000068
:0C10F100000000000000000000000000F3
:10146500E47862F208F27862E2FE08E2FFC39406CD
:10147500EE648094805018EF04FF7D301215FF1242
:1014850016B57863E22401F218E23400F280D7221F
:1000060078917C007DFE7BFF7A0C792A7E007F0644
:1000160012096D78977C007DFE7BFF7A0C79307E25
:10002600007F0612096DE4789DF20804F2D2B1123F
:1000360016181216ED12155D121581E4781CF27869
:1000460088E2644570381215C67F011216D9121659
:10005600A8121536E47862F208F27862E2FE08E247
:10006600FFC39405EE64809480501374842FF8E4E3
:10007600F27863E22401F218E23400F280DCE478DC
:1000860062F208F27862E2FE08E2FFC39406EE64CA
:10009600809480501CEF04FF1215A4786208E224B5
:1000A60015F8EFF27863E22401F218E23400F280E8
:1000B600D3120E36781CE26086E4F218E2241DF8AC
:1000C600E224CE70030201DE1470030203E714700B
:1000D600030205FE24F3700302068524FD70030265
:1000E600065324EF7003020664242460030206B05C
:1000F6007F011216D97BFE7A007974E4FD7F011226
:1001060014BFE4781CF27890F2120E36781CE26086
:10011600F8E4F218E2241DF8E2FFC39430402CEF15
:10012600D3943950261215C6781BE2241DF8E2FF37
:100136007890E2FE04F274912EF8EFF27890E2FDE8
:100146007BFF7A0B79667F021214BF781BE2241DAF
:10015600F8E2B4541E1215C67890E214F22491F80F
:10016600742DF27890E204FD7BFF7A0B79687F02AA
:100176001214BF7890E26406708F781BE2241DF893
:10018600E2645370847815E2FF7891E26F704378E9
:1001960016E2FF7892E26F70397817E2FF7893E201
:1001A6006F702F7818E2FF7894E26F70257819E265
:1001B600FF7895E2B5071B781AE2FF7896E2B50755
:1001C600117F011216D91216A81215C6121536027B
:1001D60000451215C60203D27F011216D97BFF7A9B
:1001E6000B797CE4FD7F011214BFE4781CF2789051
:1001F600F2120E36781CE260F8E4F218E2241DF8DA
:10020600E2FFC39430402CEFD3943950261215C622
:10021600781BE2241DF8E2FF7890E2FE04F2749166
:100226002EF8EFF27890E2FD7BFF7A0B79667F027B
:100236001214BF781BE2241DF8E2B4541E1215C630
:100246007890E214F22491F8742DF27890E204FD8D
:100256007BFF7A0B79687F021214BF7890E26406FE
:10026600708F781BE2241DF8E2645370847815E2DF
:10027600FF7891E26F60030203D27816E2FF78926C
:10028600E26F60030203D27817E2FF7893E26F60B1
:10029600030203D27818E2FF7894E26F6003020348
:1002A600D27819E2FF7895E26F60030203D2781ADA
:1002B600E2FF7896E26F60030203D27F011216D93D
:1002C6007BFF7A0B798BE4FD7F011214BFE4781C67
:1002D600F27890F2120E36781CE260F8E4F218E238
:1002E600241DF8E2FFC39430402CEFD394395026F6
:1002F6001215C6781BE2241DF8E2FF7890E2FE0490
:10030600F274972EF8EFF27890E2FD7BFF7A0B7984
:10031600667F021214BF781BE2241DF8E2B4541E55
:100326001215C67890E214F22497F8742DF278909C
:10033600E204FD7BFF7A0B79687F021214BF789086
:10034600E26406708F781BE2241DF8E26453708421
:100356007862F208F27862E2FE08E2FFC39406EEE3
:1003660064809480501974972FF8E2FE74152FF864
:10037600EEF27863E22401F218E23400F280D6123B
:1003860015C67F011216D97BFF7A0B799AE4FD7F99
:10039600011214BFE47862F208F27862E2FE08E223
:1003A600FFC39406EE64809480501EAE07EE04FFF1
:1003B60074152EF8E2FD1215FF1216B57863E224C5
:1003C60001F218E23400F280D10206B01215C67F9F
:1003D600011216D97BFF7A0B796AE4FD7F010206CA
:1003E6004D7F011216D97BFF7A0B79AAE4FD7F01B6
:1003F6001214BF7BFF7A0B79B9E4FD7F021214BF9A
:10040600E4781CF2120E36781CE260F8E4F218E288
:10041600241DF8E224CE700302057B0470E67F01FA
:100426001216D9789EE2640160030205737BFF7A97
:100436000B79C8FD7F011214BF7BFE7A0079017F1C
:1004460052121211EF70DC7BFE7A00795D120CF805
:10045600EF70D07BFE7A00795D120D97789DEFF2F2
:1004660070C178A474FEF2087400F208745DF27B21
:10047600FF7A0C79247D017F60120FF5789DEFF2EB
:1004860070A17BFE7A0079057F0112118D789DEFB0
:10049600F270907814E2FF7844E26F60387854E2A4
:1004A6006F60321215C61215C6E47862F208F27B46
:1004B600FF7A0B79D5E4FD7F021214BF7863E2243C
:1004C60001F218E23400F2C308E2943218E26480C2
:1004D600948040DB227814E2FF7844E26F703A128F
:1004E60015C6121536E47862F208F27BFF7A0B79AC
:1004F600E4E4FD7F021214BF7863E22401F218E2FD
:100506003400F2C308E2941918E26480948040DB58
:100516007FE8120000E4789EF27814E2FF7854E255
:100526006F703A1215C6121536E47862F208F27B3D
:10053600FF7A0B79ECE4FD7F021214BF7863E224A4
:1005460001F218E23400F2C308E2941918E264805A
:10055600948040DB7FE8120000E4789EF2789DE20A
:1005660060030204297FF4120000020429789E74B5
:1005760001F202040A7F011216D97BFF7A0B79B9C0
:10058600E4FD7F011214BF7BFE7A0079017F5212CF
:100596001211EF600302040A7BFE7A00795D120CE9
:1005A600F8EF600302040A7BFE7A00795D120D976C
:1005B600789DEFF2600302040A78A474FEF20874D0
:1005C60000F208745DF27BFF7A0C79247D017F606E
:1005D600120FF5789DEFF2600302040A7BFE7A00A3
:1005E60079457F01120ED4789DEFF2600302040A6A
:1005F6007FF412000002040A7F011216D9E4786221
:10060600F208F27862E2FE08E2FFC39406EE648026
:100616009480501CEF04FF1215A4786208E2245758
:10062600F8EFF27863E22401F218E23400F280D3A4
:100636007BFE7A007957E4FD7F011214BF7BFE7AB8
:10064600007915E4FD7F021214BF0200457F0112F6
:1006560016D97BFF7A0B79F4E4FD7F01801C7F01BC
:100666001216D97BFF7A0C7904E4FD7F011214BFC0
:100676007BFF7A0C7914E4FD7F021214BF802B12E3
:1006860015C67F011216D9E4781CF2120E36781CB4
:10069600E2600FE4F218E2241DF8E264416003020E
:1006A6000045121631120C3680DD1215C6020045C1
:1015C600E4FFFE7D507C00ED1D70011CED4C70F7B4
:0D15D600B2950FBF00010EBE02E9BF58E63E
:0115E30022E5
:0D16A8007BFE7A007964E4FD7F010214BF2F
:0C16B5007F017E267D82DDFEDEFADFF67E
:0116C1002206
:100E360075900FE590640F7003020ED31216B5E598
:100E460090640F7003020ED3781C7401F275900F34
:100E5600AF90EF24F5601224FE6015146019240784
:100E6600701A781B7401F28013781B7402F2800CDE
:100E7600781B7403F28005781B740DF27590F012DE
:100E860016B5AF90EF2450601224E0601624F0608F
:100E96001A2470701C781BE2F28016781BE2240379
:100EA600F2800E781BE22406F28006781BE2240903
:100EB600F2789FE2C3648094B2500EE59064F060CD
:0D0EC600081216B5E204F280E8E4789FF20D
:010ED30022FC
:10150F00E4FFC2AF1209932430F5993099FDC299C7
:10151F00740129F9E43AFA0FEFB410E875990A301B
:06152F0099FDC299D2AF44
:011535002293
:0F166D00E47800F2C2AF8F993099FDC299D2AFE5
:01167C00224B
:10158100758920759840758DE6858D8B758780D21C
:10159100AFD2ACD28E1213F012171112165B7F412B
:0315A1000212DE55
:100C36007FC01216D9788BE2C4540F2430FF1216E7
:100C4600E3788BE2540F2430FF1216E37F2D121641
:100C5600E3788AE2C4540F2430FF1216E3788AE25E
:100C6600540F2430FF1216E37F2D1216E37889E223
:100C7600C4540F2430FF1216E37889E2540F24304F
:100C8600FF1216E37F801216D97F321216E37F30E9
:100C96001216E3788FE2C4540F2430FF1216E3785D
:100CA6008FE2540F2430FF1216E37F2D1216E378DD
:100CB6008DE2C4540F2430FF1216E3788DE2540FF0
:100CC6002430FF1216E37F2D1216E3788CE2C4540B
:100CD6000F2430FF1216E3788CE2540F2430FF12F3
:100CE60016E37F8D1216D9788EE254072430FF0260
:020CF60016E303
:10153600C2B17862E4F20804F21216B57863E224C6
:1015460001F218E23400F2D308E2943218E2648021
:07155600948040E5D2B122B0
:0C121100789FEFF208EBF208EAF208E91F
:10121D001216487D077F0D1213B57D037F1412162C
:10122D00C2789FE278A5F278BD7401F20874FEF2DF
:10123D00087400F20874A5F20874FEF2087400F246
:10124D000874A3F27A0079A51206D5EF703478A44C
:10125D00E26410700218E2702978A5E2FE78A0E22F
:10126D00FB08E2FA08E2F9EE1209D978A6E2FE7857
:10127D00A0E2FB08E2FA08E2F9900001EE1209EB98
:04128D0080027FFE5E
:01129100223A
:0A0CF800789FEBF208EAF208E9F237
:100D0200E478A3121648E4FD7F0D1213B57D807FAF
:100D12000E12164D78A67493F2087420F278BD7400
:100D220002F20874FEF2087400F20874A6F2087463
:100D3200FEF2087400F20874A4F27BFE7A0079A62F
:100D42007F0C1206D978A2EFF2703EFF74A62FF83C
:100D5200E2FE789FE2FB08E2FA08E2F98F827583ED
:100D620000EE1209EB78A3E2FE74A62FF8E2FDEE84
:100D72006D78A3F20FEFB404D374A62FF8E2FF78D4
:100D8200A3E26F60041874FEF27D807F0E1216C219
:040D920078A2E2FF62
:010D9600223A
:1013F000D2B600C2B600D2B6007D0F7F011213B57F
:10140000007D3D7F111213B57D1E7F2D1213B5E4B3
:10141000FD7F2C1213B57D8D7F2A1213B57D3E7F83
:0E1420002B1213B57D407F151213B57F0022ED
:1012DE00EF644170401216497D3D7F111213B57DAA
:1012EE00867F171213B57D7F7F261213B57D1E7F65
:1012FE002D1213B5E4FD7F2C1213B57D8D7F2A12AE
:10130E0013B57D3E7F2B1213B57F017E001215E4BF
:0B131E0012165B80037FFF227F00227D
:06132900AC07AB05E4FE79
:10132F00E4FEC2B3C2B0EF25E0547E4480FF7D08D7
:10133F00EF30E703D38001C392B4D2B3EF25E0FFC0
:10134F00C2B3DDEC7D08D2B3EE25E0FEA2B5E433E7
:0C135F004EFEC2B3DDF0D2B0D2B3AF0638
:01136B00225F
:0713AE0012164DE4FD7F0162
:1013B500C2B3C2B0EF25E0547EFF7E08EF30E703ED
:1013C500D38001C392B4D2B3EF25E0FFC2B3DEEC04
:1013D5007E08ED30E703D38001C392B4D2B3ED2587
:0A13E500E0FDC2B3DEECD2B0D2B3DB
:0113EF0022DB
:0D16C200121329AE07AF04EB4EFD0213B565
:05164800F27D087F089F
:0E164D00121329AE07AF04EBF45EFD0213B5D5
:1006B60078BDF20874FEF2087400F20874A4F20819
:1006C60074FEF2087400F20874A2F27A0079A47B30
:0306D600FE7F0C98
:0E06D90078BAEBF208EAF208E9F278B9EFF22B
:1006E70078C474FEF2E408F208F2EF24F4600F24F1
:1006F700FE701478C57412F2087410F2800978C578
:100707007477F2087430F278C5E24480FD7F0212F4
:1007170013B57D807F041213AE7D807F0A1216C247
:10072700E478C8F208F278BDE2FF78C8E2FC08E294
:10073700FDC39FEC9400502478BAE2FB08E2FA0864
:10074700E2F98D828C831209ACFD7F091213B5780B
:10075700C9E22401F218E23400F280CA78B9E2FD56
:100767007F011213B5E2B40C077D807F0D1216C20C
:1007770078C87407F20874D0F27F0412132F78C771
:10078700EFF278C9E224FFF218E234FFF208E270D0
:100797000218E2600E78C7E2FF20E00718E2FEEFDA
:1007A7005E60D67D807F0D12164D78C9E270021803
:1007B700E2700302088E7F0612132FEF541B6003AB
:1007C70002088978C4F208E2FF78C7E25F30E005E3
:1007D70078C474FFF278B9E2640C600302088E7F74
:1007E7000A12132F78C7EFF27F0C12132FEF54075B
:1007F700FD6025E224FFFFE434FFFEEF7803C333F7
:10080700CE33CED8F97C002DFFEC3EF978C1E2FB60
:1008170008E2FA08E2C9801478C7E275F008A4FF75
:1008270078C1E2FB08E2FA08E2F9E5F08FF0120A74
:100837000D78C7E2700204F278C7E2D39410400340
:100847007410F2E478C8F208F278C7E2FFC378C9F7
:10085700E29F18E29400502F7F0912132F78BEE20F
:10086700FB08E2FA08E2F978C8E2FC08E2F5828CB4
:1008770083EF1209EB78C9E22401F218E23400F29F
:1008870080C778C474FEF27D807F0C1216C21213E3
:05089700B178C4E2FF8E
:01089C002239
:10165B007F1412132FEF540370077D037F141216A0
:01166B00C2BC
:01166C00225B
:071711007D037F1402164D59
:061107007BFE7A0079A4D2
:0D110D0078B4EBF208EAF208E9F208EDF21E
:10111A007D047F051213AE7D807F0A1216C2E4FC9D
:10112A0078B7E2FFECC39F501B78B4E2FB08E2FAFF
:10113A0008E2F98C827583001209ACFD7F0912134B
:10114A00B50C80DC7D037F011213B57CFF7F05128D
:10115A00132F1CEC6004EF30E2F37F2212132F7876
:10116A00B8E2FB08E2FA08E2F9EF1209D97F211284
:10117A00132F78B8E2FB08E2FA08E2F9900001EFCF
:03118A000209EB6C
:0A0ED400789FEBF208EAF208E9F259
:100EDE0078A474A0F208EFF278B874FEF2087400E9
:100EEE00F20874A6F27D0212110774041206B6EF10
:100EFE00701478A3E26404700218E2700978A4E218
:100F0E00540F640A60027FFEEF704FFE789FE2FB83
:100F1E0008E2FA08E2F98E827583001209ACFD74BC
:100F2E00A42EF8EDF20EEEB410E278B874FEF208CC
:100F3E007400F20874B4F27D1012110774121206C6
:100F4E00B6EF701478A3E26404700218E2700978A8
:0A0F5E00A4E2540F640A60027FFE53
:010F68002266
:0A0D9700789FEBF208EAF208E9F297
:100DA10078A47493F2087470F2E478AAF2FF789F41
:100DB100E2FB08E2FA08E2F98F827583001209ACBE
:100DC100FE74A62FF8EEF278AAE2FE8F82758300F8
:100DD1001209ACFDEE6D78AAF20FEFB404D078B829
:100DE10074FEF2087400F20874ABF27BFE7A0079AB
:100DF100A47D0712110D12164978BD7409F2087409
:100E0100FEF2087400F20874A4F20874FEF2087489
:100E110000F20874A2F27BFE7A0079A47F0C12061C
:100E2100D9EF700E78A3E26418700218E27003FF24
:040E310080027FFEBE
:010E3500229A
:0A0FF50078A1EBF208EAF208E9F235
:100FFF0078A9EFF208EDF2E4FF78A1E2FB08E2FA3C
:10100F0008E2F98F827583001209ACFE74AB2FF8DA
:10101F00EEF20FEFB406E2E4FF78A4E2FB08E2FA87
:10102F0008E2F98F827583001209ACFE74B12FF8B4
:10103F00EEF20FEFB406E278BD740CF20874FEF214
:10104F00087400F20874A9F20874FEF2087400F232
:10105F000874A7F27BFE7A0079A97F0E1206D9AC2D
:10106F0007EC70097F0812132FEF20E3027CFEAF0D
:01107F00046C
:01108000224D
:0A118D00789FEBF208EAF208E9F29D
:1011970078A47430F208EFF278B874FEF20874009D
:1011A700F20874A6F27BFE7A0079A47D0212110D73
:1011B70078BD7404F20874FEF2087400F20874A48F
:1011C700F20874FEF2087400F20874A2F27BFE7A49
:1011D7000079A47F0C1206D9EF702C78A3E26490F3
:1011E700700218E27021FE74A42EF8E2FD789FE2E7
:1011F700FB08E2FA08E2F98E82758300ED1209EB2B
:091207000EEEB410E280027FFE3D
:0112100022BB
:1015E400E4F5CAF5CCD2CAEF1FAC0670011E4C60FC
:0B15F4000730CFFDC2CF80EFC2CA223B
:0916ED00D288D2A8D2AFD2B222F9
:03000300020A2CC2
:100A2C00C0E0C0F0C083C082C0D075D000C000C090
:0D0A3C0001C002C003C004C005C006C00711
:100A490078CAE4F208F212170830B203020B4B78A5
:100A5900CCE4F20874C8F220B21CD378CDE2940039
:100A690018E2940040101216F678CDE224FFF2182D
:100A7900E234FFF280E120B203020B3C78CC74012E
:100A8900F20874F4F230B21CD378CDE2940018E283
:100A9900940040101216F678CDE224FFF218E234E1
:100AA900FFF280E178CAE4F278CBE4F278CCE4F2A0
:100AB90008743CF220B21CD378CDE2940018E29479
:100AC9000040101216F678CDE224FFF218E234FF46
:100AD900F280E178CCE4F208F230B21B1216FF780A
:100AE900CDE22401F218E23400F2D308E2941E1890
:100AF900E2940040E4804B78CAE2FF2484F8C00005
:100B0900E2C313D000F2C378CDE2940B18E294004B
:100B1900400874842FF8E24480F278CBE204F2E2D0
:100B2900C39408408778CAE204F2E2C394045003EC
:100B3900020AB17887E2F4FF18E2FEB50704788863
:020B4900EEF2CA
:100B4B00D007D006D005D004D003D002D001D000FE
:0B0B5B00D0D0D082D083D0F0D0E032A8
:0816F6007F017E02DEFEDFFA37
:0116FE0022C9
:0816FF007F137E01DEFEDFFA1D
:0117070022BF
:081708007FCD7E12DEFEDFFA48
:0117100022B6
:0E169A0081838587898B8D80828486888A8CE7
:0910FD00878900001008010219A6
:10142E00C2B500C2B600D2B500E4FEEF1392B4EF1F
:10143E00C313FFD2B600C2B6000EEEB408EDE4FE42
:10144E00ED1392B4EDC313FDD2B600C2B6000EEE8C
:06145E00B408EDC2B50068
:011464002265
:10129200C2B500C2B600D2B500E4FDEF1392B4EFBE
:1012A200C313FFD2B600C2B6000DEDB408ED00E4E0
:1012B200FDA2B4E433FFC43333335480FCEEC313D2
:1012C2004CFED2B600C2B6000DEDB408E4C2B500C1
:0B12D200D2B600C2B400D2B400AF06D8
:0112DD0022EE
:10155D00E4FD7F8E12142EE4FCEC9016A193FF7423
:10156D00892CF8E2FD12142E0CECB407EC7D807F73
:04157D008E02142E98
:10163100E4FBEB90169A93FF12129274892BF8EF48
:06164100F20BEBB407EC14
:011647002280
:100F7500020006E493A3F8E493A34003F68001F28C
:100F850008DFF48029E493A3F85407240CC8C3337D
:100F9500C4540F4420C8834004F456800146F6DF4C
:100FA500E4800B0102040810204080901081E47E4B
:100FB500019360BCA3FF543F30E509541FFEE49341
:100FC500A360010ECF54C025E060A840B8E493A308
:100FD500FAE493A3F8E493A3C8C582C8CAC583CA33
:100FE500F0A3C8C582C8CAC583CADFE9DEE780BEEB
:0111060000E8
:10089D00E709F608DFFA8046E709F208DFFA803E3D
:1008AD0088828C83E709F0A3DFFA8032E309F6082A
:1008BD00DFFA8078E309F208DFFA807088828C8392
:1008CD00E309F0A3DFFA806489828A83E0A3F60846
:1008DD00DFFA805889828A83E0A3F208DFFA804C20
:1008ED0080D280FA80C680D4806980F280338010F7
:1008FD0080A680EA809A80A880DA80E280CA803360
:10090D0089828A83ECFAE493A3C8C582C8CCC583D7
:10091D00CCF0A3C8C582C8CCC583CCDFE9DEE780A7
:10092D000D89828A83E493A3F608DFF9ECFAA9F026
:10093D00EDFB2289828A83ECFAE0A3C8C582C8CC7C
:10094D00C583CCF0A3C8C582C8CCC583CCDFEADE95
:10095D00E880DB89828A83E493A3F208DFF980CCF7
:10096D0088F0EF60010E4E60C388F0ED2402B404F0
:10097D000050B9F582EB2402B4040050AF23234597
:06098D0082239008ED73C7
:10099300BB010689828A83E0225002E722BBFE0262
:0909A300E32289828A83E4932295
:1009AC00BB010CE58229F582E5833AF583E0225000
:1009BC0006E92582F8E622BBFE06E92582F8E2224A
:0D09CC00E58229F582E5833AF583E4932264
:1009D900BB010689828A83F0225002F722BBFE01FD
:0209E900F322F7
:1009EB00F8BB010DE58229F582E5833AF583E8F042
:1009FB00225006E92582C8F622BBFE05E92582C8EE
:020A0B00F222D5
:100A0D00BB010A89828A83F0E5F0A3F0225006F734
:0F0A1D0009A7F01922BBFE06F3E5F009F3192231
:00000001FF
